:1000000025C02AC029C028C027C026C025C024C0BA
:100010008EC022C03E5149453E00427F40004261B1
:100020005149462141454B311814127F102745454F
:1000300045393C4A49493001710905033649494966
:1000400036064949291E08080808080011241FBE61
:10005000CFE9CDBFEED0D1C1D3CFCF93DF939FEF08
:10006000920FE1E0F0E0DF0102C0AA0FBB1F9A95FA
:10007000E2F7EF0102C0CC0FDD1F6A95E2F7BE0187
:100080009C2F082E01C0EE0F0A94EAF73E2F6095D0
:10009000E0952223A1F0ED01C423D52388B3CD2B15
:1000A00011F0892B01C0862388BB88B3832B88BBC2
:1000B000B695A795215088B38E2388BBEACFDF91F0
:1000C000CF910895C19A482F50E028E062E084E083
:1000D000C4CFC198482F50E028E062E084E0BDCF53
:1000E0000F931F93CF93DF93182F262F842F90E029
:1000F00065E070E0C6D0EC01CC5EDF4F822F8068F7
:10010000E8DF812F66E0CED0892F8064E2DF8E01A8
:100110000B5F1F4FFE018491D5DF2196C017D107D9
:10012000C9F780E0DF91CF911F910F91CBCF1F9244
:100130000F920FB60F9211248F929F92AF92BF929F
:10014000CF92DF92EF92FF922F933F934F935F9363
:100150006F937F938F939F93AF93BF93CF93DF93CF
:10016000EF93FF9383E087B93E98379A369A369992
:10017000FECFF4B0E5B080E8ACDF80E4AADFC8EFE2
:10018000D1E080E09FDF2197E1F76F2D70E07E29BD
:10019000882777FD8095982F28EB3BE040E050E0E2
:1001A000A2D049015A018AE0B694A7949794879403
:1001B0008A95D1F724EF821621E092062CF034EFD5
:1001C000831A31E0930A0AC084EF91E09C01281958
:1001D000390949014AE06EE182E082DFC40164E648
:1001E00070E06CD0462F68E282E07ADFC4016AE0FA
:1001F00070E064D0482F6FE282E072DFFF91EF91F0
:10020000DF91CF91BF91AF919F918F917F916F912E
:100210005F914F913F912F91FF90EF90DF90CF90A2
:10022000BF90AF909F908F900F900FBE0F901F9038
:100230001895BB9888B3887E88BB87B3876187BBD6
:10024000C09A81E246DF81EA44DF84E042DF84E154
:1002500040DF80E23EDF8CE03CDF81B5866081BD1F
:1002600081B5806481BD81B581BD789485B7877E75
:10027000806185BF85B7806285BF889585B78F7D92
:10028000F8CF0024552704C0080E591F880F991F66
:10029000009729F076956795B8F37105B9F7802D29
:1002A000952F0895991B79E004C0991F961708F0BF
:1002B000961B881F7A95C9F78095089597FB072E9E
:1002C00016F4009406D077FD08D055D007FC05D071
:1002D0003EF4909581959F4F0895709561957F4F5D
:1002E000089568940010E894A0E0B0E0E9E7F1E038
:1002F0001DC0EFEFE7F959016A015E23550FEE08C3
:10030000FE2C87019B01AC019E23990F660B762F73
:10031000CB0145D0CDB7DD27EAE01FC02F923F9239
:100320004F925F926F927F928F929F92AF92BF9205
:10033000CF92DF92EF92FF920F931F93CF93DF93B1
:10034000CDB7CA1BCDBFDD2709942A8839884888D4
:100350005F846E847D848C849B84AA84B984C884E1
:10036000DF80EE80FD800C811B81AA81D981CE0FB8
:10037000CDBFCA2F0895AA1BBB1B51E107C0AA1FFE
:10038000BB1FA617B70710F0A61BB70B881F991F36
:100390005A95A9F780959095BC01CD010895DF93FA
:1003A000CF939F92A0E49A2E0024D001E001F001A7
:1003B00016950795F794E794D794C794B794A794A4
:1003C00048F41068A20FB31FC41FD51FE61FF71F04
:1003D000081E191E220F331F441F551F661F771F4B
:1003E000881F991F9A9421F79D01AE01BF01C0019A
:0E03F00011249F90CF91DF910895F894FFCFD4
:00000001FF
